:100000000C9472000C9493000C9493000C94930045
:100010000C9493000C9493000C9493000C94930014
:100020000C9493000C9493000C9493000C94930004
:100030000C9493000C9493000C9493000C949300F4
:100040000C9493000C9493000C9493000C949300E4
:100050000C9493000C9493000C9493000C949300D4
:100060000C9493000C9493000C9493000C949300C4
:100070000C9493000C9493000C9493000C949300B4
:100080000C9493000C9493000C9493000C949300A4
:100090000C9493000C9493000C9493000C94930094
:1000A0000C9493000C9493000C9493000C94930084
:1000B0000C9493000C9493000C9493000C94930074
:1000C0000C9493000C9493000C9493000C94930064
:1000D0000C9493000C9493000C9493000C94930054
:1000E0000C94930011241FBECFEFD1E2DEBFCDBF31
:1000F00000E00CBF12E0A0E0B2E0E4EAF1E000E0D2
:100100000BBF02C007900D92A030B107D9F712E0E3
:10011000A0E0B2E001C01D92A230B107E1F70E9459
:10012000AA000C94D0000C940000DF93CF93CDB7BD
:10013000DEB7A4E2B0E0E4E2F0E0808180648C937A
:10014000A5E2B0E0E5E2F0E0808180648C93CF919D
:10015000DF910895DF93CF93CDB7DEB70E9495006E
:100160008091000290910102019690930102809388
:10017000000280910002909101028130910559F4B2
:10018000A5E2B0E0E5E2F0E0808180648C9310921B
:1001900001021092000280E090E0CF91DF9108957B
:0401A000F894FFCF01
:00000001FF
